:100000000C946A040C9492040C9492040C94920440
:100010000C9492040C9492040C9492040C94920408
:100020000C9492040C9492040C9492040C949204F8
:100030000C9492040C9492040C9492040C949204E8
:100040000C9411210C9492040C949E210C945B212D
:100050000C9492040C9492040C9492040C949204C8
:100060000C9492040C949204636172642E696E691C
:10007000740066696C652E6F70656E00726F6F74C8
:100080002E696E697400766F6C756D652E696E6988
:1000900074004572726F7220007E003C00626175D0
:1000A000642C6573636170652C657363232C6D6FBD
:1000B00064652C766572622C6563686F2C69676E67
:1000C0006F726552580000256C642C25642C2564E1
:1000D0002C25642C25642C25642C25640000526595
:1000E0006D6F766520636F6E666967206661696C07
:1000F000656400636F6E6669672E74787400200013
:10010000626175640909093A204D656E7520746F46
:1001100020636F6E66696775726520626175642021
:1001200072617465007365740909093A204D656E42
:100130007520746F20636F6E6669677572652073D2
:10014000797374656D206D6F646500726573657495
:100150000909093A2043617573657320756E6974E6
:1001600020746F2072657365742C2075736573201D
:10017000706172616D657465727320696E20636F62
:100180006E6669672066696C65006469736B09094E
:10019000093A2053686F7773206361726420696E37
:1001A000666F726D6174696F6E0073697A65203C69
:1001B00066696C653E09093A205772697465207357
:1001C000697A65206F66203C66696C653E20746FB5
:1001D000207465726D696E616C0072656164203CAB
:1001E00066696C653E203C73746172743E203C6CA1
:1001F000656E6774683E203C747970653E3A204FA6
:10020000757470757473203C6C656E6774683E20FD
:100210006279746573206F66203C66696C653E2068
:10022000746F20746865207465726D696E616C20EE
:100230007374617274696E67206174203C737461B9
:1002400072743E2E204F6D6974203C737461727419
:100250003E20616E64203C6C656E6774683E20745D
:100260006F20726561642077686F6C652066696CC9
:10027000652E203C747970653E2031207072696E65
:10028000747320696E2041534349492C2032206900
:100290006E204845582E006C730909093A205368AE
:1002A0006F77732074686520636F6E74656E742059
:1002B0006F66207468652063757272656E74206461
:1002C00069726563746F72792E2E006D64203C64D0
:1002D00069726563746F72793E09093A20437265E9
:1002E000617465732061203C6469726563746F7228
:1002F000793E00617070656E64203C66696C653E95
:1003000009093A20417070656E64732074657874D1
:1003100020746F20656E64206F66203C66696C6592
:100320003E006E6577203C66696C653E09093A209F
:1003300043726561746573203C66696C653E00427A
:100340006173696320636F6D6D616E64733A004F12
:1003500070656E4C6F672076342E3200000000000E
:10036000250028002B0000000000230026002900A3
:100370000000000800020100000304070000000064
:1003800000000000636F6E6669672E747874003237
:1003900000310021546F6F206D616E79206C6F67A2
:1003A000733A3221004C4F47253035752E5458543E
:1003B0000021546F6F206D616E79206C6F67733A06
:1003C0003121004572726F72206372656174696ECB
:1003D00067205345514C4F47005345514C4F4730D0
:1003E000302E5458540062707300476F696E672056
:1003F000746F20004F7574206F6620626F756E6495
:10040000730045786974696E67003E00456E7465D7
:1004100072206E6577206261756420726174652058
:100420002827782720746F2065786974293A00207E
:10043000627073000A0D43757272656E742072618A
:1004400074653A200045786974696E67000A0D4E3C
:10045000756D626572206F662065736361706520DB
:1004600063686172616374657273206E656564654B
:10047000643A20000A0D456E746572206E756D62D7
:100480006572206F662065736361706520636861C3
:100490007261637465727320746F206C6F6F6B2070
:1004A000666F7220283020746F20323534293A204C
:1004B000000A0D4E6577206573636170652063687F
:1004C000617261637465723A2000456E74657220D2
:1004D00061206E6577206573636170652063686174
:1004E0007261637465723A20004E65772066696CAC
:1004F00065206E756D626572207265736574207417
:100500006F207A65726F00436F6D6D616E6420704D
:10051000726F6D707400417070656E642066696CF6
:1005200065206C6F6767696E67004E657720666946
:100530006C65206C6F6767696E67003E00782920E4
:1005400045786974003629204E756D626572206F9A
:1005500066206573636170652063686172616374AE
:10056000657273003529204E65772065736361706D
:10057000652063686172616374657200342920527A
:1005800065736574206E65772066696C65206E758D
:100590006D62657200332920436F6D6D616E64205A
:1005A00070726F6D707400322920417070656E64D6
:1005B0002066696C65206C6F6767696E670031291A
:1005C000204E65772066696C65206C6F6767696E81
:1005D00067004368616E676520746F3A0020782079
:1005E0000043757272656E74206573636170652077
:1005F00063686172616374657220616E6420616D0D
:100600006F756E743A2000436F6D6D616E640041CA
:100610007070656E642066696C65004E6577206653
:10062000696C650043757272656E7420626F6F74D9
:10063000206D6F64653A20000D0A53797374656DFF
:1006400020436F6E66696775726174696F6E0075BD
:100650006E6B6E6F776E20636F6D6D616E643A20A6
:10066000006F6666006F6E0065656D006F66660000
:100670006F6E00766572626F7365006F6666006FFD
:100680006E006563686F005468697320636F6D6DF9
:10069000616E6420686173206265656E2072656DAD
:1006A0006F7665640070776400617070656E6400D9
:1006B0004572726F72206372656174696E6720663D
:1006C000696C653A20006E65770072657365740029
:1006D00073796E6300726561644353442066616997
:1006E0006C656400204D4200436172642053697A56
:1006F000653A20002F004D616E75666163747572F6
:10070000696E6720646174653A200053657269619F
:100710006C206E756D6265723A20002E000A0D56CF
:10072000657273696F6E3A200050726F64756374FE
:100730003A20004F454D2049443A20004D616E75E6
:1007400066616374757265722049443A200072656F
:100750006164434944206661696C656400556E6B51
:100760006E6F776E00534448430053443200534445
:1007700031000A4361726420747970653A20006424
:1007800069736B002D310073697A65006572726F51
:10079000722077726974696E6720746F2066696C65
:1007A00065003C004572726F72207365656B696EFF
:1007B0006720746F20004661696C656420746F2047
:1007C0006F70656E2066696C65200077726974656C
:1007D0000020002E004572726F72207365656B6990
:1007E0006E6720746F20004661696C656420746FC9
:1007F000206F70656E2066696C65200072656164AB
:10080000002E2E006364002066696C652873292021
:1008100064656C65746564002D726600726D0045D8
:1008200072726F72206372656174696E67206469A9
:10083000726563746F72793A20006D6400566F6C54
:10084000756D6520697320464154006C73007365B3
:100850007400626175640068656C70003F004669F1
:100860006C652073797374656D20696E6974696154
:100870006C697A656400436C6F73696E6720646F9E
:10088000776E2066696C652073797374656D006995
:100890006E6974003E002100000000002400270063
:1008A0002A000102040810204080010204081020E0
:1008B00001020408102004040404040404040202D5
:1008C00002020202030303030303200020002F009F
:1008D00020007E2D11241FBECFEFD8E0DEBFCDBF9C
:1008E00011E0A0E0B1E0E2E1F5E602C005900D9272
:1008F000A832B107D9F725E0A8E2B1E001C01D9206
:10090000AA3EB207E1F714E0CAE6D4E004C021979A
:10091000FE010E944632C936D107C9F70E940B2258
:100920000C9487320C9400002FB7F8948091E40562
:100930009091E5054091E6055091E705841B950BE4
:100940002FBF97FF06C02091E8053091E905820F7F
:10095000931F0895CF92DF92EF92FF926B017C017B
:100960001092C10086E08093C20060E079E08DE3E0
:1009700090E0A70196010E941932C901213060E27E
:10098000360730F4C11461EED606E104F104B1F487
:100990001092C000C901969587950197292F269539
:1009A0002093C500969587958093C40088E980932D
:1009B000C100FF90EF90DF90CF90089522E0209348
:1009C000C000EBCF833081F028F4813099F0823081
:1009D000A9F008958730A9F08830C9F08430B1F4C7
:1009E000809180008F7D03C0809180008F778093FD
:1009F0008000089584B58F7784BD089584B58F7D78
:100A0000FBCF8091B0008F778093B00008958091E4
:100A1000B0008F7DF9CFCF93DF93282F30E0F9011D
:100A2000E059FC4F8491F901EE55F74FD491F9014B
:100A3000EA54F74FC491CC23A1F081110E94E20443
:100A4000EC2FF0E0EE0FFF1FEA59FC4FA591B49197
:100A5000EC91ED2381E090E009F480E0DF91CF910B
:100A6000089580E090E0FACF1F93CF93DF93282F73
:100A700030E0F901E059FC4F8491F901EE55F74F50
:100A8000D491F901EA54F74FC491CC23A9F0162F61
:100A900081110E94E204EC2FF0E0EE0FFF1FE45AF8
:100AA000FC4FA591B4918FB7F894EC91111108C047
:100AB000D095DE23DC938FBFDF91CF911F910895F6
:100AC000DE2BF8CFCF93DF9390E0FC01EE55F74F8C
:100AD00024918A54974FFC0184918823D1F090E0AF
:100AE000880F991FFC01E856F74FA591B491FC01BE
:100AF000E45AFC4FC591D49161110EC09FB7F89490
:100B00008C91E22FE0958E238C932881E223E88359
:100B10009FBFDF91CF9108958FB7F894EC91E22BAE
:100B2000EC938FBFF6CF3FB7F89480916501909119
:100B30006601A0916701B091680126B5A89B05C028
:100B40002F3F19F00196A11DB11D3FBFBA2FA92F4C
:100B5000982F8827BC01CD01620F711D811D911D49
:100B600042E0660F771F881F991F4A95D1F70895B5
:100B70008F929F92AF92BF92CF92DF92EF92FF92AD
:100B80004B015C010E9493056B017C010E9493055F
:100B90006C197D098E099F09683E73408105910596
:100BA000A8F321E0821A9108A108B10888EEC80EC6
:100BB00083E0D81EE11CF11C81149104A104B1044E
:100BC00029F7FF90EF90DF90CF90BF90AF909F906C
:100BD0008F9008952FB7F894609161017091620130
:100BE00080916301909164012FBF0895CF93DF93AB
:100BF000EC01E981FA81208191818091560188235D
:100C000061F08FB7F89430915601313099F43DB3CB
:100C1000309355013DB33DBB8FBF2CBD9DBDE981D8
:100C2000FA8160E082810E94340581E08B83DF914C
:100C3000CF91089580935501F0CF8EBD0DB407FE7E
:100C4000FDCF08958FEF8EBD0DB407FEFDCF8EB59D
:100C500008950F931F93CF93DF93EC010E94EA0551
:100C60008B010E9422068F3F69F00E94EA05601BFB
:100C7000710BC617D707A8F780E0DF91CF911F91BE
:100C80000F91089581E0F9CFCF93DF93FC01238189
:100C90002223D1F0EC010180F281E02D61E082811C
:100CA0000E9434058FEF0E941D0680915601882313
:100CB00051F09FB7F8942091560180915501213051
:100CC00031F48DBB9FBF1B82DF91CF9108958FBF01
:100CD000FACFCF92DF92EF92FF920F931F93CF93B1
:100CE000DF93EC018B017A010E94EA056B010E94FF
:100CF00022068C838F3FB1F40E94EA056C197D09AE
:100D0000693E7340A0F385E58883CE010E944406C6
:100D100080E0DF91CF911F910F91FF90EF90DF90D6
:100D2000CF9008958E3F11F080E5EECFE1E0EE1A0E
:100D3000F1088FEF8EBDF8012FEF0DB407FEFDCF48
:100D40008EB52EBD8193CF01801B910B8E159F0513
:100D5000A0F30DB407FEFDCF8EB50E0D1F1DF801DB
:100D600080831C820E9422060E94220681E0D1CF4D
:100D7000DF92EF92FF920F931F93CF93DF938C013B
:100D8000C62FD22FF32EE42ED52EFC0183818111A4
:100D900003C0C8010E94F605CC2321F08CE291E04B
:100DA0000E9429068C2F80640E941D068D2D0E94B2
:100DB0001D068E2D0E941D068F2D0E941D068D2F53
:100DC0000E941D0687E8C11101C085E90E941D0629
:100DD0000E942206CBE00E942206F801848387FF4E
:100DE00002C0C150C1F7DF91CF911F910F91FF90C9
:100DF000EF90DF900895CF93DF93EB0120E030E098
:100E0000A901682F8BEC93E00E94B806882349F073
:100E100083E58093CB038BEC93E00E944406C0E013
:100E20000EC040E150E0BE018BEC93E00E946906E9
:100E3000C82F882381F38BEC93E00E9444068C2F0B
:100E4000DF91CF9108950F931F93CF93DF93EC0120
:100E500089018D81833039F089E0440F551F661F69
:100E6000771F8A95D1F79A01AB0168E1CE010E9404
:100E7000B806882319F082E3888339C08EEF0E9478
:100E80001D06F80180818EBD818132961E5F0DB4F2
:100E900007FEFDCF8EBDE017F10711F08191F7CF6E
:100EA0000DB407FEFDCF8FEF0E941D068FEF0E944D
:100EB0001D060E9422068C838F71853099F480ED87
:100EC00097E00E942906182F8AE51123A9F220E055
:100ED00030E0A9016DE0CE010E94B806882361F0E0
:100EE00089E2CACF87E58883CE010E944406CE01FD
:100EF0000E94440610E007C00E9422068111F0CF34
:100F0000CE010E944406812FDF91CF911F910F9156
:100F100008950F931F93CF93DF93EC0189018D8187
:100F2000833039F089E0440F551F661F771F8A957B
:100F3000D1F79A01AB0161E1CE010E94B806882386
:100F400039F080E38883CE010E94440610E00CC093
:100F500040E052E0B801CE010E946906182F8823B4
:100F600091F3CE010E944406812FDF91CF911F9112
:100F70000F910895EF92FF921F93CF93DF93FC019F
:100F8000208111E020FF14C0EC017C01F7E0EF0E9E
:100F9000F11C4B815C816D817E81E981FA81970131
:100FA000808191810E942307182F811108C010E0D1
:100FB000812FDF91CF911F91FF90EF90089588814D
:100FC00081FD04C088818E7F8883F2CFE981FA8118
:100FD0004B815C816D817E8184859585A685B785F1
:100FE000480F591F6A1F7B1F9701808191810E94C2
:100FF00023078111E7CFDBCFCF92DF92EF92FF92F1
:101000001F93CF93DF93EC016A017B01122F8B8139
:101010009C81AD81BE818C159D05AE05BF05B1F0EB
:10102000CE010E94BA0781110AC090E080E0DF91F2
:10103000CF911F91FF90EF90DF90CF90089512FF16
:101040000CC01882CB82DC82ED82FE821370888114
:10105000182B1883CE010796EACFE981FA819E0109
:10106000295F3F4FB701A601808191810E948907C6
:101070008111E7CFDACF8F929F92AF92BF92CF923A
:10108000DF92EF92FF920F931F931092890141E03C
:1010900050E060E070E040938C0150938D016093CC
:1010A0008E0170938F0124E831E03093A6012093E4
:1010B000A5011092A4014FEF5FEFBA014093A70181
:1010C0005093A8016093A9017093AA01882309F4A1
:1010D00050C020E040E050E0BA0184EA91E00E9474
:1010E000FC07009761F480E01F910F91FF90EF9053
:1010F000DF90CF90BF90AF909F908F900895FC01AC
:10110000E254FE4F20812F7771F78A539E4FFC01E6
:10111000C080D180E280F380C114D104E104F104E5
:1011200011F320E0B701A60184EA91E00E94FC07D8
:10113000FC01892BC1F2838594858115924099F633
:101140008089823081F686859785892B61F2258595
:10115000209386018FEF820F8093870180E091E0DA
:10116000291769F08F5F893041F488E08093880106
:10117000BACFC12CD12C7601D4CF990FF1CF809367
:1011800088014689578970E060E04115510521F4D6
:1011900044A155A166A177A140939001509391017C
:1011A000609392017093930126853785460157011C
:1011B000820E931EA11CB11C8092980190929901FD
:1011C000A0929A01B0929B012189328930938B01C0
:1011D00020938A01440F551F661F771F480D591D24
:1011E0006A1D7B1D4093A0015093A1016093A20151
:1011F0007093A30121893289A5E0220F331FAA959C
:10120000E1F721503E4F232F33272695420F531FDE
:10121000611D711D40939401509395016093960157
:10122000709397010389148930E020E001151105BE
:1012300021F400A111A122A133A1C41AD50AE60A02
:10124000F70AC00ED11EE21EF31E04C0F694E79406
:10125000D794C7948A95D2F7D701C6010196A11DEC
:10126000B11D80939C0190939D01A0939E01B0932A
:101270009F0185EFC8168FE0D806E104F10420F441
:101280008CE0809389012FCF80E125EFC2162FEFEC
:10129000D206E104F10468F084A595A5A6A5B7A53A
:1012A0008093A0019093A101A093A201B093A30108
:1012B00080E28093890181E017CF8F929F92AF9255
:1012C000BF92CF92DF92EF92FF920F931F93423023
:1012D00051056105710560F480E01F910F91FF9049
:1012E000EF90DF90CF90BF90AF909F908F90089538
:1012F000FC01C08CD18CE28CF38CC416D506E606BA
:10130000F70650F3480159016A017B01858180325B
:1013100041F584899589A689B78917E076956795FF
:10132000579547951A95D1F7480F591F6A1F7B1F8C
:1013300023E0CF0180960E94FC07009769F2E894B1
:10134000C7F8DD24EE24FF24CC0CDD1CCC0CDD1C06
:101350008C0D9D1DFC0180829182A282B38281E06E
:10136000BCCF803109F0B8CF448955896689778927
:101370004D0D511D611D711D23E0CF0180960E940E
:10138000FC07009709F4A8CFDD24EE24FF24CC0C41
:10139000DD1CC80ED91EF60111830083E0CFCF9269
:1013A000DF92EF92FF920F931F93CF93DF93423020
:1013B00051056105710550F48FEFDF91CF911F91B9
:1013C0000F91FF90EF90DF90CF900895FC01C08CBB
:1013D000D18CE28CF38CC416D506E606F70660F3D2
:1013E00089016A017B01EC0185818032B9F584892C
:1013F0009589A689B789E7E07695679557954795CA
:10140000EA95D1F7480F591F6A1F7B1F22E0CE01D2
:1014100080960E94FC07009779F2E894C7F8DD24D3
:10142000EE24FF24CC0CDD1CCC0CDD1C8C0D9D1D92
:10143000FC0180819181A281B381BF70488D598D5B
:101440006A8D7B8D481759076A077B0738F1F801C9
:1014500080839183A283B38381E0AFCF803109F091
:10146000ABCF44895589668977894D0D511D611D22
:10147000711D22E0CF0180960E94FC07009709F4BD
:101480009BCFDD24EE24FF24CC0CDD1CC80ED91E1E
:10149000F60180819181B0E0A0E0D0CF80E08DCFD7
:1014A0009F92AF92BF92CF92DF92EF92FF920F93F3
:1014B0001F93CF93DF9300D000D0CDB7DEB75C0190
:1014C0006A017B0119821A821B821C829E012F5F96
:1014D0003F4FB701A601C5010E94CF09982E87FD95
:1014E00034C000E010E09801B701A601C5010E94D8
:1014F0005D09882351F1F501408551856285738529
:101500004C155D056E057F0550F0F1E0CF1AD1084E
:10151000E108F108F501C086D186E286F386C9802C
:10152000DA80EB80FC809110D1CF0F900F900F905C
:101530000F90DF91CF911F910F91FF90EF90DF906F
:10154000CF90BF90AF909F90089580E0EECFBF9274
:10155000CF92DF92EF92FF920F931F93CF93DF937F
:10156000DB01FC019F012F5F3F4F8081803209F436
:101570009EC01496FC93EE9313979F0189010E1B56
:101580001F0B722F632FE90189919E01882379F047
:101590008F3209F08EC0CF01800F911F782F692FF5
:1015A000EC012991CE012032C9F32F32B9F3EA01BF
:1015B00078836983E801CE0FDF1F8E010E1B1F0B9E
:1015C000CE17DF0709F495C08A918E32B1F38032CD
:1015D000A1F30F3F110511F00CF06DC012961C9392
:1015E0000E931197ED012696CD01419620E22993A5
:1015F0008C179D07E1F7EF019E012E1B3F0B899190
:101600008E32D1F38032C1F381E02115310509F02A
:1016100080E0A80141505109EF01C00FD11F4F3F99
:10162000540709F069C0F12C67E0B12C70E0D8E0F4
:10163000ED2E201731070CF0ACC06F01C20ED31E87
:10164000E6019881903209F483C09E3221F4241778
:10165000350709F07DC0D92F9232E1F09C37D1F0E7
:10166000C6EDDC2ED90EC5E0CD1510F09D3291F4FB
:10167000C6ECDC2ED90EC5E0CD1560F4C5EADC2E33
:10168000D90EC2E0CD1530F4CFEDDC2ED90ECDE56C
:10169000CD15C8F52417350709F076C06A3009F46E
:1016A00077C06AE098E0B92EC0E1EC2E52C0F90193
:1016B00059CF8C3559F480E0DF91CF911F910F9174
:1016C000FF90EF90DF90CF90BF900895982F977F75
:1016D000923289F38A3379F3982F9F7B9C3359F3A5
:1016E00092EC980F923038F380528F3508F446CF41
:1016F000E2CF10E000E072CF9A919E3209F493CFCE
:10170000415051098CCF2417350741F26B15F0F188
:10171000CFE9DC2ED90EC9E1CD1508F19052FE2893
:10172000DD24D394DB0CED01CB0DD11D9E83D6E0DF
:10173000DD1518F01596DC921597BD2C0AC04217DE
:10174000530734F19A016AE0D8E0BD2E80E1E82E1B
:1017500080E02F5F3F4F6DCF80E09FE5DFE5D15404
:10176000DA31F0F67E29DCCF81E08C9315966C910E
:101770001597A60FB11D8EE716968C93169781E3E9
:1017800017968C9381E098CF6B1530F76A30B9F6D5
:1017900080E016969C911697903209F48CCF88239E
:1017A00019F37F2111F0D2E0FD2EFC9285CFFC01D0
:1017B0009C01255F3F4F80E080FB879587F99191E1
:1017C000890F2E173F07C1F708954F925F926F92CE
:1017D0007F928F929F92AF92BF92CF92DF92EF92C1
:1017E000FF920F931F93CF93DF93EC014A015B01AC
:1017F0004C845D846E847F84A881AA2309F486C00A
:10180000488959896A897B89481559056A057B0584
:1018100069F081149104A104B10451F41C861D8661
:101820001E861F86888A998AAA8ABB8A81E073C02D
:10183000A3FF59C0088D198D2A8D3B8D08151905F8
:101840002A053B0508F462C0EE81FF81848190E0A7
:1018500009968A019B010150110921093109082EBD
:1018600004C036952795179507950A94D2F7750108
:101870006401B1E0CB1AD108E108F10804C0F69484
:10188000E794D794C7948A95D2F7C016D106E2069A
:10189000F30628F0452B462B472B09F052C0A6FF34
:1018A0004BC0848D958DA68DB78D8C879D87AE8717
:1018B000BF878E01045F1F4FC114D104E104F104FE
:1018C00009F4B0CF4C855D856E857F8598018E814A
:1018D0009F810E94CF0991E0C91AD108E108F1085F
:1018E000181654F313C0A5FFAFCFEE81FF81868198
:1018F000978125E0880F991F2A95E1F7B0E0A0E0D5
:1019000088159905AA05BB0508F08CCF4C865D8625
:101910006E867F8680E0DF91CF911F910F91FF90BF
:10192000EF90DF90CF90BF90AF909F908F907F907F
:101930006F905F904F9008958C8D9D8DAE8DBF8D73
:10194000B4CFC01AD10AE20AF30AB3CFCF93DF9320
:10195000DC01FC0190E048E080E05EE22191203271
:10196000D1F0983031F4EB01C80FD11D58838F5F4F
:1019700040E1EF01219728813FEB320F3A3130F4FB
:101980001C963C911C97342309F0205EEB01C80F94
:10199000D11D28838F5F9F5F9B3001F7680F711DFA
:1019A000FB011082DF91CF910895CF93DF93EC017B
:1019B000262F4C895D896E897F898E819F818096D3
:1019C0000E94FC07009771F02C813D812F70332716
:1019D00045E0220F331F4A95E1F7820F931FDF91F5
:1019E000CF91089590E080E0FACFCF93DF93FC0190
:1019F0002081211104C081E0DF91CF910895EC0195
:101A0000828182FF27C061E0CF010E94D50CFC01DA
:101A1000892B29F489818160898380E0EDCF8081E1
:101A2000853EC1F3888183FF08C0888D998DAA8D7A
:101A3000BB8D848F958FA68FB78F8C8D9D8D938F47
:101A4000828F8C8D9D8DAE8DBF8DB58BA48B8A8141
:101A50008B7F8A838E819F8180960E94BA0788231C
:101A6000C9F2C9CFCF93DF93EC010E94F50C188225
:101A7000DF91CF9108953F924F925F926F927F9244
:101A80008F929F92AF92BF92CF92DF92EF92FF928E
:101A90000F931F93CF93DF9300D000D0CDB7DEB765
:101AA0004C01FC01828184608283A680B7804484DB
:101AB000558466847784F501C084D184E284F384FC
:101AC000C414D504E604F70410F011E003C0730158
:101AD000620110E0FFEFCF1ADF0AEF0AFF0AF501FB
:101AE000808D918DA28DB38D8C159D05AE05BF05A2
:101AF00038F4111131C0C084D184E284F384E5CF7D
:101B00004C145D046E047F0439F19E012F5F3F4F3A
:101B1000B701A601C5010E94CF0987FD1DC088231A
:101B2000C9F289819A81AB81BC81892B8A2B8B2B4D
:101B300089F6112329F0F501C086D186E286F38665
:101B40000FEF1FEF2FEF3FE0B701A601C5010E9485
:101B50005D09382E811118C0312C832D0F900F9004
:101B60000F900F90DF91CF911F910F91FF90EF9009
:101B7000DF90CF90BF90AF909F908F907F906F90AD
:101B80005F904F903F900895411451046104710497
:101B900031F4F401C486D586E686F786DECF970158
:101BA0008601B301A201C5010E945D098111F1CF37
:101BB000D3CF9FB7F89480918001882319F081508A
:101BC0008093800180918001811105C08CB58F7B4D
:101BD0008CBD109256019FBF08952091E40530916D
:101BE000E5058091E6059091E7052817390769F02A
:101BF0008091E6059091E705E091E205F091E3051B
:101C0000E80FF91F808190E008958FEF9FEF08950E
:101C10000895CF92DF92EF92FF920F931F93CF938D
:101C2000DF937C018A01EB016B01C40ED51ECC153C
:101C3000DD0551F06991D701ED91FC910190F081A2
:101C4000E02DC7010995F3CFC801DF91CF911F9116
:101C50000F91FF90EF90DF90CF9008958091E6056F
:101C60009091E7052091E4053091E50582179307EF
:101C7000C9F09C012F5F3F4FE091E205F091E30531
:101C8000E80FF91F80814091E8055091E90524177C
:101C9000350710F030E020E03093E7052093E605AB
:101CA00090E008958FEF9FEF08950C949404809135
:101CB000C00085FFFCCF6093C60081E090E00895EE
:101CC0000F931F93CF93DF938C01D0E0C0E0F80116
:101CD000EC0FFD1F6491662341F084ED93E00E94B8
:101CE000570E892B11F02196F2CFCE01DF91CF91C3
:101CF0001F910F910895682F84ED93E00C94570E77
:101D0000CF93C82F0E940B0560E0892B09F461E096
:101D10008C2FCF910C943405CF93DF939C01DB0182
:101D2000F901EB018991BE01E90199919E01882396
:101D300061F19A3231F0891791F39F3381F380E09A
:101D40002AC050E040E030E020E008C0981711F0D1
:101D50008F33A9F4CF0101961196FC019C918081EB
:101D6000992399F08A3291F7CF010196218122239C
:101D7000A9F09D012F5F3F4F582F492FEECFD9017A
:101D80002F5F3F4F852F942FE8CF91919A32E9F33F
:101D900081E09111D4CFDF91CF91089581E0FBCF05
:101DA000FC0170E09F01281B390B261737075CF4F4
:101DB0002191022E000C330B205331092A303105BA
:101DC00088F390E080E00895E8E2F1E080E020818F
:101DD0003181232B19F0928191118F5F339691E01D
:101DE000E733F907A1F70895CF93DF93EC0120E0E3
:101DF00030E0A901E99180ED8E0F8A3090F4AAE0DD
:101E0000B0E00E943B322E2FEE0F330B20533109EE
:101E1000032E000C440B550B260F371F481F591F6C
:101E2000E9CFCA01B901DF91CF910895C82F82E9A6
:101E300090E00E94600E8CE790E0C83051F082E79D
:101E400090E0C93031F088E690E0C73011F486E8C0
:101E500090E00E94600E83E00E94E62104960C94BC
:101E6000F50C40E050E0BA010C94E50B90E080E006
:101E70000895AF92BF92CF92DF92EF92FF920F93AD
:101E80001F93CF93DF936C015C018FEFA80EB11C01
:101E90007601EA14FB0408F047C02091E405309174
:101EA000E5058091E6059091E70528173907E1F1EE
:101EB00085010E191F09F8948091E4059091E505BC
:101EC0007894C091E605D091E7058C179D0730F511
:101ED0008091E8059091E9058C1B9D0B8017910777
:101EE00008F48C016091E2057091E3056C0F7D1F91
:101EF000A801C7010E946832C00FD11F8091E80578
:101F00009091E905C817D90710F0C81BD90BD093D9
:101F1000E705C093E605E00EF11EBBCFC817D90751
:101F2000D8F210E000E0F7CFC7018C199D09DF91CE
:101F3000CF911F910F91FF90EF90DF90CF90BF90C6
:101F4000AF9008958F929F92AF92BF92DF92EF92DF
:101F5000FF920F931F93CF93DF93EC017B012881B6
:101F6000222309F4BBC08A8180FFB8C08888998881
:101F7000AA88BB8823FF21C0888D998DAA8DBB8D2F
:101F800088199909AA09BB0982309105A105B105F3
:101F900018F5009709F530E020E0A901481B590B1E
:101FA000CA01DF91CF911F910F91FF90EF90DF90C9
:101FB000BF90AF909F908F90089525FF0DC0EE8148
:101FC000FF818681978135E0880F991F3A95E1F767
:101FD0008815990509F488C084011170EE81FF818C
:101FE000B501A40189E076956795579547958A953F
:101FF000D1F725FF27C0848D958DA68DB78D480F0D
:10200000591F6A1F7B1F8E819F8120E080960E944E
:10201000FC07009709F462C0800F911FFC018081CA
:10202000F701808388899989AA89BB890196A11DB6
:10203000B11D888B998BAA8BBB8B21E030E090E09F
:1020400080E0ABCFD380D4220115110581F4D110EB
:102050000EC089288A288B2881F526FF29C0848D07
:10206000958DA68DB78D8C879D87AE87BF87EE81B6
:10207000FF814C855D856E857F85425051096109E0
:102080007109848104C0440F551F661F771F8A950C
:10209000D2F780899189A289B389840F951FA61FE1
:1020A000B71FAC01BD014D0D511D611D711DABCFA1
:1020B0008C8D9D8DAE8DBF8DD6CF4C855D856E850B
:1020C0007F859E01245F3F4FCF010E94CF0987FD8E
:1020D00005C08111CCCF8881807749F489818260E5
:1020E00089838FEF9FEF5DCF30E020E0A8CF21E024
:1020F00030E081E090E051CFEF92FF920F931F9379
:10210000CF93DF931F92CDB7DEB77C01962FF701F7
:1021100040895189628973898A019B0185E03695DE
:102120002795179507958A95D1F70F7011F09111A2
:1021300029C0BE016F5F7F4FC7010E94A20F81308F
:1021400051F090E080E00F90DF91CF911F910F91BF
:10215000FF90EF900895F70180899189A289B38952
:102160004F96A11DB11D808B918BA28BB38BF70174
:10217000868197818796F0E20F9F90011124820F4C
:10218000931FE1CF405E5F4F6F4F7F4F408B518B6E
:10219000628B738BECCF2F923F924F925F926F9234
:1021A0007F928F929F92AF92BF92CF92DF92EF92E7
:1021B000FF920F931F93CF93DF93EC015B014A01D2
:1021C000888183FFC5C08A8181FFC2C083FDB7C0FB
:1021D000A40170E060E088899989AA89BB8980950B
:1021E0009095A095B09584179507A607B70708F4B2
:1021F000AFC064011E018CE0280E311C08891989CA
:102200002A893B89C114D10409F4E1C08E819F81E0
:10221000B901A80129E076956795579547952A95C4
:10222000D1F7DC011396FC90F4221170F1101BC061
:102230004C855D856E857F850115110509F0F4C01B
:10224000411551056105710509F488C091010E948D
:10225000CF0987FD7DC0811106C0CE010E943B0DD4
:10226000882309F475C0EE81FF814C855D856E85FC
:102270007F854250510961097109848104C0440F6E
:10228000551F661F771F8A95D2F780899189A28989
:10229000B389840F951FA61FB71FAC01BD014F0D59
:1022A000511D611D711D0115110529F4C114B2E004
:1022B000DB0608F06EC080E092E0801B910B760197
:1022C0008C159D0508F47C010115110571F44888F1
:1022D00059886A887B88888D998DAA8DBB8D25E069
:1022E000481659066A067B0608F421E0CF0180965D
:1022F0000E94FC07009761F1A701B501800F911FB3
:102300000E9468320E0D1F1D0115124039F48E8196
:102310009F8180960E94BA078823D1F08889998985
:10232000AA89BB898E0D9F1DA11DB11D888B998B1C
:10233000AA8BBB8BAE0CBF1CCE18DF085FCF488DBD
:10234000598D6A8D7B8DCE010E94E50B811140CFA6
:102350008981816089838FEF9FEF4DC08C8D9D8D2A
:10236000AE8DBF8D0097A105B10571F4CE010E941D
:102370003B0D882369F38C859D85AE85BF858C8F49
:102380009D8FAE8FBF8F6FCF8C879D87AE87BF87A6
:102390006ACF83A194A1A5A1B6A1481759076A07DE
:1023A0007B0741F410A28FEF9FEFDC0183A394A37E
:1023B000A5A3B6A3EE81FF819501808191810E9442
:1023C0002307882329F2E12C82E0F82EA7CF888DFD
:1023D000998DAA8DBB8D80179107A207B30738F49A
:1023E0008A81088F198F2A8F3B8F84608A838A8124
:1023F00087FD14C0C401DF91CF911F910F91FF9011
:10240000EF90DF90CF90BF90AF909F908F907F9094
:102410006F905F904F903F902F900895CE010E9453
:10242000F50C8111E7CF94CFFC01425051096109AD
:102430007109848104C0440F551F661F771F8A9558
:10244000D2F780899189A289B389480F591F6A1FE1
:102450007B1F31CF04960C94CB10CF93DF931F9248
:10246000CDB7DEB7698341E050E0BE016F5F7F4FBB
:1024700004960E94CB100F90DF91CF910895FB013D
:1024800001900020E9F73197AF01461B570BDC01A3
:10249000ED91FC910280F381E02D09946FE171E0F0
:1024A0000C943F12CF93DF930E94600EEC0184EDF9
:1024B00093E00E944E128C0F9D1FDF91CF910895E3
:1024C0008FE493E00E9452128FE393E00E94521235
:1024D00082E293E00E94521283EF92E00E94521235
:1024E0008BEC92E00E94521287E992E00E94521215
:1024F0008AED91E00E9452128AEA91E00E94521203
:102500008AE891E00E9452128BE491E00E945212FC
:1025100085E291E00E94521280E091E00C94521208
:102520008F929F92AF92BF920F931F93CF93DF939F
:10253000CDB7DEB7A1970FB6F894DEBF0FBECDBF03
:1025400019A2423008F44AE08E010F5D1F4F842E1D
:10255000912CB12CA12CA50194010E941932E62FD7
:10256000B901CA01EA3004F5E05DD801EE938D01AE
:10257000232B242B252B79F790E080E0109729F06E
:10258000BD0184ED93E00E943F12A1960FB6F8942E
:10259000DEBF0FBECDBFDF91CF911F910F91BF90D6
:1025A000AF909F908F900895E95CDFCFCF93DF933A
:1025B000462F682F70E090E080E00E949012EC01BE
:1025C00084ED93E00E944E128C0F9D1FDF91CF91FE
:1025D0000895CF92DF92EF92FF92CF93DF9397FF10
:1025E00019C06B017C018DE20E947B0EEC01662715
:1025F0007727CB016C197D098E099F094AE00E945B
:1026000090128C0F9D1FDF91CF91FF90EF90DF9084
:10261000CF9008954AE0DF91CF91FF90EF90DF9047
:10262000CF900C949012CF93DF93D0E0C0E000974E
:1026300031F0BC0184ED93E00E943F12EC0184ED87
:1026400093E00E944E128C0F9D1FDF91CF91089551
:10265000FC01808181110FC080E2DF01982F1D9263
:102660009A95E9F777836683DB0115969C91903103
:1026700029F0903211F080E0089580E4808381E0B9
:1026800082830895CF93C82F8BEA93E00E94320D86
:1026900064E871E08BEA93E00E942813882369F0D4
:1026A000CC2359F08091AB03807749F08BEA93E01B
:1026B00090938301809382018C2FCF91089580E0C5
:1026C000FCCF8F929F92AF92BF92CF92DF92EF9208
:1026D000FF920F931F93CF93DF93D82FC92F1092A0
:1026E000CE031092CB031092D00381ED93E0909330
:1026F000CD038093CC030E94EA056B010091CC03CB
:102700001091CD038AE0F801828361E00E946205A6
:1027100061E0F80182810E9434051FB7F89480912E
:102720008001811127C0E0ECF8E08491ECEAF8E048
:102730009491E82FF0E0EE0FFF1FE856F74FA591B8
:10274000B491EC91E92321F461E08AE00E94340520
:1027500061E08AE00E9462058CB580618CBD8CB519
:1027600080648CBD61E08DE00E94620561E08BE0D9
:102770000E946205809180018F5F809380011FBF5E
:10278000E091CC03F091CD0382E5808311828091AA
:10279000CE03811104C08BEC93E00E94F605E0911A
:1027A000CC03F091CD0361E082810E9434051AE0F0
:1027B0008FEF0E941D061150D9F7E091CC03F091E4
:1027C000CD0360E082810E9434051AE020E030E011
:1027D000A90160E08BEC93E00E94B806082F8130DD
:1027E00029F11150A9F480E28093CB038BEC93E0A4
:1027F0000E94440680E0DF91CF911F910F91FF90DE
:10280000EF90DF90CF90BF90AF909F908F90089502
:102810008DEF0E941D0698E0A92E92E0B92E0E942D
:102820002206F1E0AF1AB108D1F7D0CF2AEA31E0A1
:1028300040E050E068E08BEC93E00E94B80614E0C2
:10284000853041F50093D0038091D003812C912CE9
:102850005401823029F4812C912CA12C80E4B82ED3
:1028600020E030E0A90167E38BEC93E00E94B8061A
:10287000A501940169E28BEC93E00E94B8068823DD
:10288000B9F00E94EA056C197D09613D774040F37B
:1028900083E4AACF0E9422068093CF031150D1F780
:1028A0008A3A21F482E08093D003CECF85E29CCF98
:1028B0008091D0038230D1F420E030E0A9016AE3B6
:1028C0008BEC93E00E94B806882311F087E38CCF4D
:1028D0000E942206807C803C19F483E08093D00320
:1028E0000E9422060E9422060E9422068BEC93E0A0
:1028F0000E944406E091CC03F091CD03D083C183C4
:102900008BEC93E090938501809384018BEA93E0B4
:102910000E94320D81E00E943B088823A9F064E800
:1029200071E08BEA93E00E942813882309F462CFB8
:102930009091AB03907709F45DCF2BEA33E03093AD
:1029400083012093820157CF80E00E943B088111D0
:10295000E6CF50CF9F92AF92BF92CF92DF92EF928D
:10296000FF920F931F93CF93DF93CDB7DEB7A0975E
:102970000FB6F894DEBF0FBECDBF19821A82DC01FC
:102980002C9123FF16C012962C9121FF12C08C01AE
:10299000FC01448D558D668D778D4115510561057E
:1029A000710549F461E0C8010E94D50C7C010097D3
:1029B00049F480E076C0868197810E94500A811197
:1029C000F1CFF7CF0E94D70B982E85EEF7018083C9
:1029D000D8011C9216968D919C9180960E94BA0700
:1029E000882339F3F8019381992309F45AC080852B
:1029F0009185A285B385668177819E012F5F3F4FC8
:102A000069010097A105B10509F05DC0C9010E94E7
:102A10002813882371F2EE24E394F12C25EEA22EE4
:102A2000D80113968C9113978E1518F214964D9128
:102A30005C914E195F0970E060E085E0440F551F1E
:102A4000661F771F8A95D1F7C6010E94E50B882380
:102A500009F4AFCF60E0C6010E947C10FC01892B15
:102A600009F4A7CF83858F3009F0A3CF9081892FF8
:102A70008F71E8129ECF858589119BCFA082D801E6
:102A80001696ED91FC9180A1816080A3BFEFEB1AB7
:102A9000FB0A96FFC5CFF8018681978180960E9438
:102AA000BA07A0960FB6F894DEBF0FBECDBFDF9178
:102AB000CF911F910F91FF90EF90DF90CF90BF903B
:102AC000AF909F9008952CE1F60111922A95E9F7B5
:102AD00020E1298321E02B8378876F838D8F9E8F60
:102AE000AF8FB8A398CFCF93DF93FC01208124FF51
:102AF0000CC0EC010E94310F61E0CE010E947C10FD
:102B0000009739F48981882381F080E0DF91CF91AB
:102B10000895FC012081222341F0253E69F32E32E5
:102B200059F3838583FDE8CFF0CF88E088838A81DD
:102B300082608A83CE01DF91CF910C94AA14CF9248
:102B4000DF92EF92FF920F931F93CF93DF93FC01DD
:102B500080E2DF011D928A95E9F7EB01AE81BF812A
:102B6000B783A68355834483CC8CDD8CEE8CFF8C9D
:102B7000C086D186E286F3864F705527ED01A79671
:102B800095E0440F551F9A95E1F7BE01640F751F3C
:102B9000EB018B8583FD17C0CD01840F951FEC01E0
:102BA0008AA987718083EB019B85987111F48860F5
:102BB00080830383822F8370813009F44DC030F00D
:102BC000823009F447C0108280E03BC081E08283FC
:102BD000928191FF03C080818171A9F72878292B08
:102BE000228393960D911D912D913C919697048B84
:102BF000158B268B378BA40FB51FDB964D915C91FF
:102C0000DC9770E060E0BA0155274427ED01CF5B07
:102C1000DF4F0881198130E020E0402B512B622BDF
:102C2000732B448F558F668F778FAD5BBF4F8D9120
:102C30009D910D90BC91A02D808F918FA28FB38F0D
:102C400081E0DF91CF911F910F91FF90EF90DF9086
:102C5000CF90089583E0BBCF82E0B9CF8F929F924F
:102C6000AF92BF92EF92FF920F931F93CF93DF9398
:102C70007C01EB0100E010E088889988AA88BB8875
:102C800060E0CE010E947C100097A1F1FC01208140
:102C9000222381F12E3221F1253E11F1338533FDBE
:102CA00021C0002321F00E94D70B811323C0B5015E
:102CB000A40185E076956795579547958A95D1F754
:102CC00020E0BE01C7010E949F15DF91CF911F91A7
:102CD0000F91FF90EF90BF90AF909F908F900895CD
:102CE00000E0CACF3F30E1F726FFC6CF022F0F71B9
:102CF0001585C2CF80E0E9CFCF92DF92EF92FF92AD
:102D00000F931F93CF93DF936C01EB017A01411571
:102D1000510509F44AC04150510970E060E085E076
:102D2000440F551F661F771F8A95D1F7CE010E9469
:102D3000E50B81110AC080E0DF91CF911F910F91C7
:102D4000FF90EF90DF90CF90089560E0CE010E9459
:102D50007C10FC01892B79F383858F3049F58081C4
:102D60008F71813029F515850E2D85E1E816F10466
:102D700008F004E160E0CE010E947C100097D9F2D7
:102D8000FC012081253EB9F22223A9F22E3299F2CC
:102D9000002321F00E94D70B8113CDCF20E0A701A3
:102DA000BE01C6010E949F15C7CFCB010E94310F03
:102DB00000E010E0DFCF8F929F92AF92BF92CF9250
:102DC000DF92EF92FF920F931F93CF93DF93CDB7D4
:102DD000DEB7C655D1090FB6F894DEBF0FBECDBF22
:102DE0008C016B01942E19A61AA618A61FA287E1C2
:102DF00091E09EA38DA3C8010E94310F97E1A92EF7
:102E000091E0B92E2FE2822E1D821E821C821B822F
:102E1000BA82A9828D818111C6C0F8018081807734
:102E200009F4C1C080899189A289B3898F719927DA
:102E3000AA27BB27892B8A2B8B2B09F0B4C0B8019A
:102E4000CE0105960E942E16882309F4ACC08D8110
:102E5000811105C0CE0105960E94320DDBCF807630
:102E6000D9F02A968FAE2A972B961FAE2B978D817D
:102E7000982F9870887771F3992309F486C0BE0162
:102E8000675B7F4FC6010E948C0E882319F381E097
:102E900067968FAF67977DC060E0CE0105960E9470
:102EA000D50C0097B9F2BE01675B7F4F0E94A60C5C
:102EB000DECFBE01675B7F4F84ED93E00E943F123F
:102EC000E82E8D8184FF05C08EEC98E00E94600E94
:102ED000E80E8D8183FF14C0FDE0FE1530F08CEC10
:102EE00098E00E94600EE394F7CF8AEC98E00E948D
:102EF000600E6D8D7E8D8F8D98A14AE00E9490129C
:102F000084ED93E00E944E12CE0105960E94320D90
:102F100067968FAD6797823009F076CFE090810198
:102F2000E1E0EE1508F470CF89A581116DCFF801AD
:102F30008081807709F468CF4089518962897389DB
:102F400085E076956795579547958A95D1F74150D5
:102F50005109B801CE0189960E947C16882309F494
:102F600053CFE394E092810142E04F0DB601CE01D0
:102F700089960E94DB1680918101815080938101A6
:102F8000CE0189960E94320D3FCFF2E06796FFAFE7
:102F90006797F12C9F1409F48CCF80ED98E00E9484
:102FA000600EF394F7CFCA5ADF4F0FB6F894DEBF26
:102FB0000FBECDBFDF91CF911F910F91FF90EF908A
:102FC000DF90CF90BF90AF909F908F900895CF9259
:102FD000DF92EF92FF920F931F93CF93DF93CDB7C2
:102FE000DEB7A0970FB6F894DEBF0FBECDBFFC01D1
:102FF00019821A829081907781F480E0A0960FB6B2
:10300000F894DEBF0FBECDBFDF91CF911F910F911E
:10301000FF90EF90DF90CF9008958F01CF010E9435
:10302000310FF801C088D188E288F38860E0C801D8
:103030000E947C10009769F4F80181818111DDCF35
:10304000F8018081807609F057C0C8010E9473158D
:10305000D5CFFC012081222399F3253E11F32E3296
:1030600001F3838583FDDDCF89818111C6CFF8010E
:103070008081807709F4C1CF95E0F694E794D794E6
:10308000C7949A95D1F7A601B801CE0101960E9486
:103090007C16882309F4B1CF898184FF25C0CE0135
:1030A00001960E94E717882309F4A7CFFFEFCF1AF4
:1030B000DF0AA60170E060E085E0440F551F661F3F
:1030C000771F8A95D1F7F80180899189A289B38900
:1030D00084179507A607B70709F4A3CFC8010E9474
:1030E000E50B81119ECF89CF8B8182608B83CE01CE
:1030F00001960E94AA14D7CF81E080CFAF92BF92F1
:10310000CF92DF92EF92FF920F931F93CF93DF93B3
:10311000EC01888185FF0DC010E0812FDF91CF91F8
:103120001F910F91FF90EF90DF90CF90BF90AF90E5
:10313000089588899989AA89BB8981159E4FAF41D5
:10314000B10550F7CE010E943B0D182F882321F3C3
:10315000EE81FF81CC84DD84EE84FF8432E0C31AEB
:10316000D108E108F108848104C0CC0CDD1CEE1C00
:10317000FF1C8A95D2F780899189A289B389C80EEC
:10318000D91EEA1EFB1E25E0B701A601CF018096DD
:103190000E94FC075C01892B09F4BECF80E092E01D
:1031A000F5019C01119221503040E1F701E0EE81E0
:1031B000FF818281081780F49501B701A601400FB5
:1031C000511D611D711D808191810E9423078823FB
:1031D00009F4A2CF0F5FEBCF90E0B0E0A0E029E0D0
:1031E000880F991FAA1FBB1F2A95D1F748895989B3
:1031F0006A897B89840F951FA61FB71F888B998BBF
:10320000AA8BBB8B8ACF9F92AF92BF92CF92DF9255
:10321000EF92FF920F931F93CF93DF937C01962E33
:10322000C62ED12CA60170E060E00E947132D0E081
:10323000560181E0A81AB1080D2F10E00A151B05F0
:103240009CF50E949404892BE1F384ED93E00E94A5
:103250002E0EC82F85E00E94800EC83011F0CF37A7
:1032600091F4DD2349F3D150F701ED0FF11D1082E8
:1032700088E00E947B0E8EEF90E00E94600E88E056
:103280000E947B0ED9CF8091000180FF03C08C2F5C
:103290000E947B0ECD3009F584ED93E00E944E1222
:1032A000F701E00FF11F1082E8E2F1E08FE0DF01AB
:1032B0001D928A95E9F710E0C1E08C2F90E09C0107
:1032C0002F5F3F4F8E0D9F1DFC018081803271F07A
:1032D000C216D30621F5C92D0CC0CA3009F4ACCFF3
:1032E000F701E00FF11FC083DF5FA6CFC216D30640
:1032F00091F30E94E40E853080F490E0FC01EE0F23
:10330000FF1FE80FF91FE85DFE4FC701810F911DF8
:10331000918380838C2F811B8283CF5F1C2FCF5F93
:10332000C91558F28D2FDF91CF911F910F91FF900A
:10333000EF90DF90CF90BF90AF909F9008952F9225
:103340003F924F925F926F927F928F929F92AF9235
:10335000BF92CF92DF92EF92FF920F931F93CF9382
:10336000DF93CDB7DEB729970FB6F894DEBF0FBE57
:10337000CDBF4C017F836E83FA01DB018C91807796
:10338000D1F480E029960FB6F894DEBF0FBECDBF12
:10339000DF91CF911F910F91FF90EF90DF90CF9031
:1033A000BF90AF909F908F907F906F905F904F9065
:1033B0003F902F900895D4018C918111E2CFA1808C
:1033C000B2808081837033243394882349F0C5010F
:1033D0000C966DE070E00E94053233243394360E73
:1033E00029837F01EE81FF81F987E887CF010E9461
:1033F000310F1C821D821A82212C10E000E01B82FA
:1034000097012A5F3F4F3F832E83A885B985509649
:103410004D905D906D907C90539795E07694679475
:10342000579447949A95D1F7620161E0CD010E94CB
:103430007C10009709F062C0E885F98581818111CF
:10344000A0CFE981E4FF9DCF8E2F83708150823021
:1034500008F097CF112311F0CC80DD80131500F513
:1034600060E0888599850E947C10892B09F0E4C072
:10347000A885B98511968C91811183CF888599850E
:103480000E947E18882309F47CCFA885B9851696FA
:10349000ED91FC918281823018F4105F131570F366
:1034A000BB81BB2309F4F8C0F701558002E010E0AE
:1034B0008EE7482E3701F6E06F0E711CD70111968A
:1034C0002D913C911297C801820F931F1396ED9195
:1034D000FC912E0F3F1F2E173F0709F4AFC0AC0120
:1034E000B5E0440F551FBA95E1F7840F951F419140
:1034F000042E000C550B84279527EDCFDC012C9171
:10350000253E11F021110EC0111102C04C825D82C6
:10351000131508F41F5F222309F493CF253E21F4ED
:1035200000E073CF131550F12E32D1F3FC01338537
:103530003F3009F05AC0011123C026FF66CF022F89
:103540000F71F585FA83202EE22DE150FF0BAF01BC
:10355000FDE0F49F9001F59F300D11242A153B05E5
:10356000F8F6FC01D12C64E06D1590F08181928118
:10357000A216B306B1F4892B99F647CF10E0D4CF49
:103580002A942211CDCF2585BA812B17E9F2C8CF15
:103590008AE08D1518F084819581EACF8681978124
:1035A000E7CF8F3F910511F008F0BACF4FEB480FEE
:1035B0004A3108F4805EB9016F5F7F4FD7011396DF
:1035C0004D915C91240F351FD9019C912FEB290F50
:1035D0002A3108F4905E9813A3CFD3943296BDE0BD
:1035E000DB1609F412CF9B01BECF33FD99CF002328
:1035F00099F0E1E02E12C5CE0E94D70BFA818F130D
:10360000C0CEB981B6FDBDCE2981A6016885798578
:10361000C4010E949F15B6CE4BE050E06E817F81C1
:103620000E945B32892B09F0F0CED7018C9180FF8C
:10363000E8CF31E03B83E9CE1F5F10CFB3E0B51593
:1036400010F4A3E05A2E34E0350D282F2F702A30C5
:1036500008F08AC0205DF701E30FF11D2683F4E036
:1036600096958795FA95E1F73150531670F3F70167
:10367000E50DF11D4682888599850E94310F61E034
:10368000888599850E947C10009709F06FC0E885B5
:10369000F9858181811175CEA60170E060E0E5E0D9
:1036A000440F551F661F771FEA95D1F788859985C6
:1036B0000E94E50B882309F464CE0FEF030D102F51
:1036C0003FE0532E3701B6E06B0E711C4DE0442EE7
:1036D000112309F477C060E0888599850E947C10E9
:1036E0006C01892B09F44DCEA885B9851696ED910C
:1036F000FC9180A1816080A3312E101302C06894D8
:1037000036F8F601308253861486C3010E94D70B27
:10371000D6011D968C931D975B961C921E925A970C
:10372000F70123813481832D8F718150990B489E3D
:10373000A001499E500D1124F60160E04A155B0579
:1037400070F5D901A40FB51F8C91082E000C990BB0
:10375000653080F5928381836F5F4F5F5F4F329654
:103760006D3061F71150B4CF295C75CFDC012C911D
:10377000222309F491CF1B962C9123FD80CF4BE09F
:1037800050E0BC01C3010E945B32892B09F077CF66
:103790000F5F1F4F0436110509F090CEF2CD81E086
:1037A00090E0A416B50611F490E080E09195819523
:1037B0009109CECF6B3018F495838483CDCF978356
:1037C0008683CACFA885B98550964D905D906D903F
:1037D0007C90539760E0CD010E947C10009709F423
:1037E000D0CD25E076946794579447942A95D1F7E5
:1037F000620120E2FC0111922A95E9F7F701369661
:103800002BE0DC0101900D922A95E1F7D7012C9174
:103810002871FC01248721E238E2318B208B40E0C3
:1038200058E057874687338B228B318F208F578BF9
:10383000468BA885B9851696ED91FC9180A1816093
:1038400080A3E2CEDF92EF92FF920F931F93CF936C
:10385000DF93CDB7DEB7E3970FB6F894DEBF0FBEA8
:10386000CDBF7C018B015BAB4AABD22E19821A8291
:10387000FC018081882379F080E0E3960FB6F8940C
:10388000DEBF0FBECDBFDF91CF911F910F91FF9093
:10389000EF90DF900895FB018081807769F3EAA9BA
:1038A000FBA980818F32D9F4EAA9FBA980818F32EC
:1038B00021F43196FBABEAABF7CFF8016681778153
:1038C000811104C0C7010E942813D7CFCE010196F1
:1038D0000E942813882381F28E010F5F1F4FAE01D3
:1038E0004E5C5F4FBE016F5D7F4F8AA99BA90E940E
:1038F000A70A882309F4C0CFEAA9FBA980818823FD
:10390000B9F020E0AE014F5D5F4FB801C7010E94E2
:103910009F19882309F4B0CF80E2F701DE011196E8
:1039200001900D928A95E1F7C7010E94320DD4CF24
:103930002D2DAE014F5D5F4FB801C7010E949F1949
:103940009CCF1F93CF93DF93CDB7DEB7A0970FB671
:10395000F894DEBF0FBECDBF162F19821A82FC016C
:1039600020812F3281F4218121110DC0862F0E94E8
:103970004213A0960FB6F894DEBF0FBECDBFDF9105
:10398000CF911F91089520E0AC016BEA73E0CE0166
:1039900001960E94221C882361F399819077B9F0E7
:1039A00090E2FE013196ABEAB3E001900D929A9558
:1039B000E1F71123F1F28091AB03807731F08BEACC
:1039C00093E09093830180938201812FD2CF80E096
:1039D000D0CFFB01242F6091820170918301AF0150
:1039E0000C94221C8F929F92AF92BF92CF92DF9243
:1039F000EF92FF920F931F93CF93DF93CDB7DEB774
:103A0000C752D1400FB6F894DEBF0FBECDBFCC5F1A
:103A1000DE4F1882C450D140CB5FDE4F1882C550B4
:103A2000D140CE5FDE4F19821882C250D14027E1CB
:103A300031E0C050DF4F39832883C050D140E12CA2
:103A4000FF24F394EC0EFD1E24E0E20EF11C49E18C
:103A5000BC01C7010E94E91C811103C089E00E94DA
:103A6000160FC45EDE4F88819981AA81BB81CC513B
:103A7000D140892B8A2B8B2B31F4C7010E94310F47
:103A8000C7010E94F50C0E94EA054B015C018BE91D
:103A900090E00E94600E61E085E00E943405809114
:103AA0007B0181111CC0E12CFF24F394EC0EFD1E60
:103AB00084E0E80EF11CCE0101960E94390F8823A4
:103AC00009F442C0AC015527BE016F5F7F4FCE01A4
:103AD00093950E942A1285E00E94800EECCF10E0A0
:103AE000C12CDD24D394CC0EDD1E24E0C20ED11CEB
:103AF00000917B01101708F0ABC0CE0101960E9427
:103B0000390F7C01282F882309F462C099818091A4
:103B10007C0198135BC01F5FFE01329681E0821723
:103B200030F4319193134FC01F5F01134DC0A701B3
:103B30005527BE016F5F7F4FCE0193950E942A12D9
:103B400085E00E94800ED4CF0E94EA0568197909A9
:103B50008A099B09653F71408105910508F4ABCF47
:103B6000C7010E94F50C60E085E00E943405809159
:103B7000640080628093640080916400846080931C
:103B800064001AE061E0812F0E94620560E0812FED
:103B90000E9434051F5F1E30A9F783B7816083BF81
:103BA000889583B78E7F83BF809164008B7F8093DD
:103BB0006400809164008F7D809364000E94EA0518
:103BC0004B015C0178CF10E08F5FA9CF10E0AFCF41
:103BD0000E94EA05681979098A099B09653F7140C5
:103BE0008105910508F484CFC6010E94F50C60E0C0
:103BF00085E00E94340580916400806280936400B7
:103C0000809164008460809364001AE061E0812FF9
:103C10000E94620560E0812F0E9434051F5F1E3004
:103C2000A9F783B7816083BF889583B78E7F83BFF1
:103C3000809164008B7F80936400809164008F7D0D
:103C4000809364000E94EA054B015C011E2D50CF59
:103C500080E091E08C0F9D1F04960E94F50C20914E
:103C60007B01222309F4C2C0C45EDE4F88819981A2
:103C7000AA81BB81CC51D1406C017D01C21AD1080F
:103C8000E108F108CC5FDE4F2881C450D14023FF0A
:103C9000ADC0CA5FDE4F2881C650D14021FFA6C00B
:103CA0008C159D05AE05BF0508F4A0C0892B8A2B95
:103CB0008B2B09F49BC0CC5EDE4F88809980AA8054
:103CC000BB80C451D140C814D904EA04FB0410F4E9
:103CD00046015701B701A60180E091E08C0F9D1FBE
:103CE00004960E94E50B882309F480C0C65FDE4F6E
:103CF00088819981CA50D140C114D104E104F104F2
:103D0000E1F5C05EDE4F488159816A817B81C052F6
:103D1000D1400E94500A882309F468C0C05EDE4F7B
:103D2000188219821A821B82C052D140C45EDE4FB3
:103D3000C882D982EA82FB82CC51D140CA5FDE4F71
:103D40008881C650D1408460CA5FDE4F8883C650E8
:103D5000D140E12CFF24F394EC0EFD1E84E0E80E2C
:103D6000F11CC7010E94F50C882309F43FC0B5017E
:103D7000A401C7010E94E50B39C0C05FDE4F488136
:103D800059816A817B81C051D1409E012C5D3E4F9B
:103D90000E94CF0987FD2AC0882341F2CC5DDE4F07
:103DA000488159816A817B81C452D140C65FDE4F10
:103DB00088819981CA50D1400E94500A8823B1F06D
:103DC000C05FDE4F488159816A817B81C051D140FB
:103DD0000FEF1FEF2FEF3FE0C65FDE4F8881998125
:103DE000CA50D1400E945D098111A0CF80E091E0CE
:103DF0008C0F9D1F04960E94320D60E085E00E94AA
:103E0000340589E990E00E94600E81E0C95DDE4FD3
:103E10000FB6F894DEBF0FBECDBFDF91CF911F91DB
:103E20000F91FF90EF90DF90CF90BF90AF909F9059
:103E30008F900895DF92EF92FF920F931F93CF938D
:103E4000DF93CDB7DEB7A0970FB6F894DEBF0FBEF5
:103E5000CDBF8C01DB019C91907709F497C07B0169
:103E600022E5C8010E949F19882309F48FC081E0D0
:103E7000F801828380E1D82ED082C8010E947E188A
:103E8000882309F483C0F80184859585A685B785C4
:103E9000848F958FA68FB78FC8010E94310FC801FC
:103EA0000E94F50C882309F471C061E0C8010E94EA
:103EB000D50CFC01892B09F469C0D38680E2DE01B0
:103EC000119601900D928A95E1F78EE28983FE01A9
:103ED0003296CE010C9620E22193E817F907E1F71C
:103EE000D8011696ED91FC9117975C964D915D91D6
:103EF0006D917C915F9742505109610971098481EC
:103F000004C0440F551F661F771F8A95D2F780891A
:103F10009189A289B389480F591F6A1F7B1F21E02D
:103F2000CF0180960E94FC07009781F120E2FE01FC
:103F30003196DC0101900D922A95E1F72EE22A8359
:103F4000F701448D558D668D778D7E8B6D8B5C8FE3
:103F50004B8F20E2FE013196DC01909601900D928C
:103F60002A95E1F7D80116968D919C918096A0969E
:103F70000FB6F894DEBF0FBECDBFDF91CF911F917A
:103F80000F91FF90EF90DF900C94BA0780E0A0961D
:103F90000FB6F894DEBF0FBECDBFDF91CF911F915A
:103FA0000F91FF90EF90DF9008950C949630CF9290
:103FB000DF92EF92FF926B017C01B701992777FDA9
:103FC0009095892F89E090E00E94D51F9927F7FCF2
:103FD0009A958F2D7E2D6D2D8AE090E00E94D51F41
:103FE0006C2D8BE090E0FF90EF90DF90CF900C94E1
:103FF000D51F0C948E300F931F93CF93DF9389E0DE
:1040000090E00E94F91FD82F8AE090E00E94F91FEB
:10401000C82F8BE090E00E94F91F4C2F50E070E019
:1040200060E0762F652F542F44276D2B8A019B016A
:10403000082BC901B801DF91CF911F910F9108950D
:104040009F92AF92BF92CF92DF92EF92FF920F9327
:104050001F93CF93DF93CDB7DEB7CE56D1090FB6FE
:10406000F894DEBF0FBECDBF1EA61FA61DA61CA6C0
:1040700087E191E09BA78AA780E00E94421381110B
:1040800003C088E00E94160F63EF70E0CE018B59E9
:104090009F4F0E94D42D41E0BE016B597F4FCE014E
:1040A0008E960E94E91C882309F1CE018E960E940B
:1040B000AA1481111BC08EED90E00E945212CE0115
:1040C0008E960E94320DC259DF4F0FB6F894DEBFB4
:1040D0000FBECDBFDF91CF911F910F91FF90EF9059
:1040E000DF90CF90BF90AF909F90089549E1BE01BF
:1040F0006B597F4FCE018E960E94E91C0E94FB1FD8
:10410000162F072FF82EE92E85E090E00E94F91F68
:10411000D82E86E090E00E94F91FC82E82E090E041
:104120000E94F91FB82E87E090E00E94F91FA82E88
:1041300088E090E00E94F91F982E8CE090E00E94A9
:10414000F91F1F928F931F929F921F92AF921F92FF
:10415000BF921F92CF921F92DF92EF92FF920F9326
:104160001F9387EC90E09F938F938E01025B1F4F0C
:104170001F930F930E94ED2DF80101900020E9F7A5
:104180003197AF01401B510BB801CE018E960E94B2
:10419000CB10CE018A960E944E126DE970E00D544C
:1041A0001109C8010E94D42DF80101900020E9F7FF
:1041B0003197AF01401B510BB801CE018E960E9482
:1041C000CB10CE018E960E94F50CCE018E960E94E9
:1041D000320D0FB6F894DEBF0FBECDBF74CFE7E34C
:1041E000F1E09EE1DF011D929A95E9F790E0FC0174
:1041F000EE0FFF1FE80FF91FE85DFE4F6081718130
:104200006115710559F04281442341F04F3108F0A6
:104210004EE150E087E391E00C94783290E080E04A
:1042200008951F920F920FB60F9211242F933F9370
:104230008F939F93AF93BF9380916101909162019F
:10424000A0916301B09164013091600123E0230FDC
:104250002D3758F50196A11DB11D20936001809363
:10426000610190936201A0936301B0936401809116
:10427000650190916601A0916701B0916801019676
:10428000A11DB11D8093650190936601A093670104
:10429000B0936801BF91AF919F918F913F912F9102
:1042A0000F900FBE0F901F90189526E8230F0296CF
:1042B000A11DB11DD2CF1F920F920FB60F921124E4
:1042C0002F933F934F935F938F939F93EF93FF931E
:1042D00020915C0130915D0180915A0190915B01C8
:1042E0002817390791F48091C1008F7D8093C10018
:1042F000FF91EF919F918F915F914F913F912F91FE
:104300000F900FBE0F901F901895C9010196E09174
:104310005801F0915901E20FF31F208140915E0195
:1043200050915F018417950710F090E080E0909322
:104330005D0180935C012093C600DACF1F920F923B
:104340000FB60F9211242F933F934F935F938F9348
:104350009F93EF93FF938091C0008C719091C60062
:104360004091E4055091E5059A012F5F3F4FE091A0
:10437000E205F091E305E40FF51F90834091E80515
:104380005091E9052417350710F030E020E0409106
:10439000E6055091E7054217530799F48160909123
:1043A0005701892B80935701FF91EF919F918F9136
:1043B0005F914F913F912F910F900FBE0F901F90E3
:1043C00018953093E5052093E405E9CFC82FD0E098
:1043D00010E000E00C171D07BCF461E085E00E94CE
:1043E000340568EC70E080E090E00E94B80560E081
:1043F00085E00E94340568EC70E080E090E00E9467
:10440000B8050F5F1F4FE6CF60ED77E080E090E0EA
:104410000E94B805DDCFCF93DF93CDB7DEB7CA5C7E
:10442000D1090FB6F894DEBF0FBECDBF789484B526
:10443000826084BD84B5816084BD85B5826085BDA0
:1044400085B5816085BD80916E00816080936E002E
:104450001092810080918100826080938100809120
:1044600081008160809381008091800081608093D1
:1044700080008091B10084608093B1008091B00091
:1044800081608093B00080917A00846080937A008C
:1044900080917A00826080937A0080917A008160B6
:1044A00080937A0080917A00806880937A001092DD
:1044B000C10061E085E00E94620583B7817F83BF10
:1044C00083B7816083BF80917A008F7780937A0071
:1044D00080E880BF8FE380937E0083E080937F003D
:1044E000809164008068809364008091640088609B
:1044F0008093640080916400806480936400809164
:1045000064008160809364000E94FB1F8B019C010A
:104510000C52114021093109053111442F40310558
:1045200008F08EC060936A0170936B0180936C01F8
:1045300090936D0182E090E00E94F91F863008F0B0
:1045400092C080937F0185E090E00E94F91F9FEF69
:10455000980F9E3F08F08FC080937C0186E090E02A
:104560000E94F91F8F3F09F48FC080937B0187E081
:1045700090E00E94F91F823008F08FC080937D0187
:1045800088E090E00E94F91F823008F08FC080938D
:104590007E018091000190917D01913009F08FC0E2
:1045A0008260809300018091000190917E019130A2
:1045B00009F087C08160809300018CE090E00E9448
:1045C000F91F823008F07FC080936901C0906A01B2
:1045D000D0906B01E0906C01F0906D01C701B601C5
:1045E0000E94AA0484EFC81681E0D806E104F10411
:1045F000D4F4A7019601F4E0220F331F441F551F86
:10460000FA95D1F760E074E284EF90E00E941932ED
:10461000215031093093C5002093C4008091C0001F
:104620008D7F8093C00081E993E00E94600E80E559
:1046300091E00E94611381114EC086E00E94160F26
:1046400080E096E9A0E0B0E080936A0190936B016E
:10465000A0936C01B0936D0160E076E980E090E09A
:104660000E94D71F67CF10927F0160E082E090E048
:104670000E94D51F68CF8AE180937C016AE185E0C2
:1046800090E00E94D51F6ACF83E080937B0163E0B6
:1046900086E090E00E94D51F6ACF81E080937D0183
:1046A00061E087E090E00E94D51F6ACF81E08093AF
:1046B0007E0161E088E090E00E94D51F6ACF8D7F87
:1046C00070CF8E7F78CF1092690160E08CE090E02F
:1046D0000E94D51F7BCF80E00E944213811102C04F
:1046E00088E0ACCF8FE893E00E94600E2E961FAE5C
:1046F0002E972F961FAE2F972D961FAE1EAE2D977D
:1047000087E191E02B969FAF8EAF2B9780E00E94C0
:104710004213882329F364E873E0CE0185960E9452
:10472000D42DE9E4CE2ED12CCC0EDD1E94E0C90EA2
:10473000D11C40E0BE016B5D7F4FC6010E94E91CA9
:10474000082F882309F45FC0FE0131967F01B12C48
:10475000A12C4F011C2DBE0163597F4F812F9D2D30
:104760000E94A20F019709F0E1C0AE968FADAE97FF
:10477000282F8C3219F080538A3050F4F70121939E
:104780007F01FFEFAF1ABF0A27E1A216B10419F7A4
:1047900089E490E08C0F9D1F04960E94320D10E07A
:1047A00080E0512C772473946624639453E0452E63
:1047B0006AE1362E212CC12C76E9D72EE12CF12C82
:1047C0008A151B040CF018C1DE01A359BF4F60E02D
:1047D000482F460FC653DF4F4883CA5CD040242F72
:1047E00030E0A401420F531FFA0190819C3209F47A
:1047F000A0C02A153B050CF09CC0673009F499C095
:104800009D936F5FE5CFC6010E94320D0E9420206C
:1048100080916901811174C160E00E94620561E0CC
:1048200080E00E94340580E00E940B05019709F4A6
:1048300067C10E94D90D61E08DE00E94620561E0D0
:104840008DE00E94340518E269E170E080E090E0BC
:104850000E94B80585E00E94800E80E00E940B0552
:10486000019709F44DC169E170E080E090E00E9499
:10487000B8058DE00E94800E80E00E940B05019734
:1048800009F43EC1115001F760E076E980E090E064
:104890000E94D71F60E082E090E00E94D51F6AE18D
:1048A00085E090E00E94D51F63E086E090E00E94E2
:1048B000D51F61E087E090E00E94D51F61E088E0AD
:1048C00090E00E94D51F60E08CE090E00E94D51F30
:1048D00080E590E00E946113882309F4AECE80E069
:1048E0000E944213882309F4FBCE0E9420200E94DC
:1048F000D90D61E085E00E94620561E08DE00E94D3
:10490000620561E085E00E94340561E08DE00E946F
:10491000340564EF71E080E090E00E94B80585E026
:104920000E94800E8DE00E94800EF3CF8FEF9FEFEC
:104930001FCFEDE6F0E0EC0FFD1FE60FF11D10823A
:10494000CE0183599F4F0E94AD2D11111FC0CE0182
:1049500083599F4F0E94F40E6B017C01FCE2CF1A39
:10496000F1E0DF0AE108F10825E1C21621E4D206F0
:104970002FE0E206F104D0F56B017C011F5FC65306
:10498000DF4F8881CA5CD0408F5F1ACF113031F47D
:10499000382E18169CF33AE1332EF0CF123031F452
:1049A000482E8F3F59F723E0422EE8CF133039F4D9
:1049B0009FEF980F282E923008F3212CDFCF143070
:1049C00031F4682E8823D1F266246394D7CF153052
:1049D00031F4782E882391F277247394CFCF163058
:1049E00059F4582E823050F2512CC8CFC12C46E9D0
:1049F000D42EE12CF12CC2CF80916A0190916B01F1
:104A0000A0916C01B0916D018C159D05AE05BF059F
:104A100009F45BC0C701B6010E94D71FC0926A01AA
:104A2000D0926B01E0926C01F0926D01C701B6016A
:104A30000E94AA04802F90917F01921541F020924C
:104A40007F01622D82E090E00E94D51F802F90911F
:104A50007C01931541F030927C01632D85E090E05C
:104A60000E94D51F802F90917B01941541F04092B8
:104A70007B01642D86E090E00E94D51F802F9091ED
:104A80007D01961541F060927D01662D87E090E0F2
:104A90000E94D51F802F90917E01971541F0709252
:104AA0007E01672D88E090E00E94D51F802F9091B5
:104AB0006901951561F050926901652D8CE090E0D7
:104AC0000E94D51F0E94202004C080E0B4CF811135
:104AD000F9CF8091000190917D01913069F482605D
:104AE000809300018091000190917E01913031F41A
:104AF0008160809300018CCE8D7FF2CF8E7FF9CFC5
:104B000080917F0181116BC01D821E821C821B82DD
:104B100087E191E09A83898383E090E00E94F91F06
:104B2000F82E84E090E00E94F91F182F0F2D4FEF10
:104B3000F41248C08F3F09F045C060E083E090E088
:104B40000E94D51F60E084E090E00E94D51F10E035
:104B500000E085EAE82E83E0F82E9EE6C92E91E07B
:104B6000D92E1F930F93FF92EF92DF92CF920E9464
:104B7000ED2D41E56EE671E0CE0105960E94E91C3F
:104B80000F900F900F900F900F900F908111B7C062
:104B900040E06EE671E0CE0105960E94E91C882394
:104BA00009F4A3C08D8D9E8DAF8DB8A1892B8A2B62
:104BB0008B2B09F096C0CE0105960E94320D8EE631
:104BC00091E00BC00E3F8FEF180709F083C081EB17
:104BD00093E00E94600E90E080E00E94F21C8091C1
:104BE0007F018130E9F419A61AA618A61FA287E151
:104BF00091E09EA38DA369ED73E0CE0184549F4F95
:104C00000E94D42D41E1BE0164547F4FCE018996AC
:104C10000E94E91C81118BC083EC93E00E94521228
:104C20001D821E821C821B8287E191E09A83898308
:104C300061E082E291E00E94A11C11E001E0BDE68A
:104C40002B2E312C2C0E3D1EE8E02E0E311C8091B7
:104C5000000183FF03C08AE10E947B0E111104C092
:104C600086E998E00E94600E84E998E00E94600E58
:104C70006EE1CE0183579F4F0E94031911E08823F4
:104C800031F380E00E94EF206C016FE878E00E9431
:104C9000CB2D892B09F055C08091000181FF04C004
:104CA00086E798E00E94521280E591E00E9461132D
:104CB000882309F4C2CC80E00E944213882309F4BF
:104CC0000FCD8091000181FF45C08EE598E00E94E4
:104CD000521240C00115110509F43BCF01501109D2
:104CE00038CFCE0105960E94320D0F5F1F4F0E3F49
:104CF0009FEF190708F435CF83E993E06ACFCE011F
:104D000005960E94320D0F5F1F4F602F83E090E0E9
:104D10000E94D51F84E090E00E94F91F181709F443
:104D20004ECF612F84E090E00E94D51F48CFCE0186
:104D300089960E94320DCE0184549F4F0E94F21C2E
:104D40006FCF6CE578E0C6010E94CB2D892B21F452
:104D50000E94601211E07BCF67E578E0C6010E94F7
:104D6000CB2D892BA9F362E578E0C6010E94CB2DFB
:104D7000892B09F052C00E94FB1F4B015C0184E3A8
:104D800094E00E94600EC501B4010E94E9128FE216
:104D900094E00E9452128CE094E00E9452128AE049
:104DA00094E00E94600E68E0CE01875B9F4F0E94F6
:104DB00003192A968FAD2A97883729F482E094E068
:104DC0000E94521244CFCE01875B9F4F0E94F40E87
:104DD0004B015C01DC01CB018C529140A109B1096E
:104DE00085319144AF40B10518F084EF93E0E8CFEE
:104DF0008AEE93E00E94600EC501B4010E94E912A0
:104E000086EE93E00E945212C501B4010E94D71FA2
:104E10000E94202085E00E94E6216EE478E0C60131
:104E20000E94CB2D892B09F0DBC082E090E00E942C
:104E3000F91F182F88E396E00E94521284E296E050
:104E40000E94600E8BE196E0112341F08FE096E026
:104E5000113021F0123021F487E096E00E94600EBC
:104E600084ED93E00E944E1281EE95E00E94600E68
:104E700060917C0170E090E080E04AE00E94901236
:104E80008DED95E00E94600E6AE070E080917B01FC
:104E90000E94D61282ED95E00E9452128EEB95E0B0
:104EA0000E94521287EA95E00E94521285E995E02D
:104EB0000E9452128CE795E00E94521284E695E01F
:104EC0000E94521285E495E00E9452128DE395E013
:104ED0000E9452128BE395E00E94600E0E9494049F
:104EE000892BE1F384ED93E00E942E0E813361F46F
:104EF0008AE295E00E94521260E082E090E00E9417
:104F0000D51F0E94202026CF823331F486E195E020
:104F10000E94521261E0F1CF833331F487E095E0D3
:104F20000E94521262E0E9CF843379F489EE94E072
:104F30000E94521260E083E090E00E94D51F60E082
:104F400084E090E00E94D51F05CF853301F58AECFF
:104F500094E00E94600E0E949404892BE1F384ED9A
:104F600093E00E942E0E80937C01682F85E090E0F4
:104F70000E94D51F0E94202081EB94E00E94600EC9
:104F80006AE070E080917C010E94D612E3CE863305
:104F900009F584E794E00E94600E0E949404892B36
:104FA000E1F384ED93E00E942E0E60ED680F6F3FF9
:104FB00081F360937B0186E090E00E94D51F0E9400
:104FC00020208DE494E00E94600E6AE070E0809101
:104FD0007B01DACF883709F02DCF85E494E077CED6
:104FE0006BE478E0C6010E94CB2D892B21F58091DE
:104FF000000181FF0AC08DE398E00E94600E6AE024
:1050000070E0809189010E94D6120E94E40E8130E6
:1050100059F42AE2F6012083118240E0B6018BEABE
:1050200093E00E94DB1696CE81E00E94EF206C0197
:105030000E94DB2DF2CF6AE378E0C6010E94CB2DFF
:10504000892B09F0A3C081E00E94EF206C0100973A
:1050500011F410E0FCCDAE961FAEAE97AF961FAE2A
:10506000AF97C853DF4F99838883C85CD0402A9696
:105070001FAE2A972B961FAE2B978091AB0380779C
:1050800009F46EC0F6018081ABEAEA2EA3E0FA2EA5
:105090008F3209F5C853DF4FE881F981C85CD040F1
:1050A00080818F3241F43196C853DF4FF983E88312
:1050B000C85CD040EFCF6091B1037091B203CE01D4
:1050C000875B9F4F0E942813882309F449C0CE01B3
:1050D000875B9F4F7C01AE0148535F4FBE01655512
:1050E0007F4FC853DF4F88819981C85CD0400E94B0
:1050F000A70A8823A9F1C853DF4FE881F981C85C6A
:10510000D04080818823B1F120E0AE0145555F4F4A
:10511000B701CE0183599F4F0E949F198823A9F0A0
:1051200080E2FE01E359FF4FDE01A75BBF4F019014
:105130000D928A95E1F7CE0183599F4F0E94320D5F
:10514000FE01E75BFF4F7F01C6CFAE0145555F4FC4
:10515000B701CE0183599F4F0E941A1F8111E0CFE2
:105160008091000181FF75CF8FE198E00E94600E71
:10517000C6011FC1AE0145555F4FB701CE0183592E
:105180009F4F0E941A1F8111E5CDEACF6CE178E0B4
:10519000C6010E94CB2D892B09F0CEC081E00E9470
:1051A000EF207C01892B09F454CF0E94E40E833058
:1051B000F9F468E178E0C7010E94CB2D892BC1F496
:1051C00082E00E94EF2020E0AC016BEA73E0CE01A8
:1051D00005960E94221C882309F43BCFCE01059638
:1051E0000E94E717182FCE0105960E94320D2FCD91
:1051F00020E0A7016BEA73E0CE0105960E94221C15
:1052000081115EC0C7010E94DB2D60E082E291E067
:105210000E94A11C812C912C54018D81811178C098
:105220008091AB03807709F473C08091BB039091A8
:10523000BC03A091BD03B091BE038F719927AA272B
:10524000BB27892B8A2B8B2B09F062C06BEA73E09A
:10525000CE0105960E942E16882309F459C08D812F
:1052600083FF29C0807609F446C0FFE22A96FFAF8B
:105270002A972B961FAE2B97BE01675B7F4FC70106
:105280000E948C0E8823B9F0CE0105960E94320D43
:1052900041E0BE01675B7F4FCE0105960E94E91C8D
:1052A000CE0105960E94AA14882329F02FEF821AB6
:1052B000920AA20AB20ACE0105960E94320DADCF23
:1052C0008D81807771F4CE0105960E94320D41E008
:1052D000B701CE0105960E94E91C811107C010E0BC
:1052E00082CFCE0105960E9473157CCFCE01059624
:1052F0000E94AA1477CF60E0CE0105960E94D50CDB
:105300000097C9F2BE01675B7F4F0E94A60CB4CF25
:105310008091000181FF09C04AE0C501B4010E94EB
:10532000901287E098E00E94521211E089288A28A2
:105330008B2809F08CCC8DCE64E078E0C6010E9409
:10534000CB2D892BB1F481E00E94EF207C010097E6
:1053500009F47FCE61E078E00E94CB2D60E0892BDC
:1053600031F482E291E00E94A11C182F70CCC70199
:10537000FACF6CEF77E0C6010E94CB2D892B09F0A4
:10538000D2C081E00E94EF207C01009709F461CE39
:1053900040E0BC01CE0105960E94E91C81110CC0C1
:1053A0008091000181FF55CE87EE97E00E94600E4C
:1053B000C7010E9413134DCE82E00E94EF20009798
:1053C00039F1FC0101900020E9F73197BF01681B1A
:1053D000790B0E94D00E7C010097D1F00E94F40E50
:1053E000AB01BC01CE0105960E94E50B811110C0F6
:1053F0008091000181FF07C085ED97E00E94600E5B
:10540000C7010E941313CE0105960E94320D21CED2
:1054100083E00E94EF20009709F44AC0FC0101904C
:105420000020E9F73197BF01681B790B0E94D00E6D
:105430000097F1F10E94F40E4B015C0184E00E94A0
:10544000EF200097D1F1FC0101900020E9F731979E
:10545000BF01681B790B0E94D00E009771F10E946A
:10546000F40E6B017C01412C512C32014394BE019E
:10547000675B7F4FCE0105960E94A20F019709F04E
:1054800045C02A966FAD2A9784149504A604B704E4
:10549000E8F181E0C816D104E104F10409F580EED9
:1054A000860F8F3578F484ED93E00E94570E12C07A
:1054B00088248A94982C5401C1CFC12CD12C760118
:1054C000C394D1CF6A3079F36D3069F383ED97E0FF
:1054D0000E94600E4FEF441A540A640A740AC7CF40
:1054E00092E0C916D104E104F10449F470E090E0BF
:1054F00080E040E10E94901281ED97E0E9CFE3E087
:10550000CE16D104E104F10429F7CDCFCE010596E2
:105510000E94320D8091000183FD1CCC84ED93E04C
:105520000E944E1217CC6BEC77E0C6010E94CB2D87
:10553000892B09F06FC081E00E94EF207C01009769
:1055400009F487CD41E0BC01CE0105960E94E91C1B
:10555000811107C08091000181FF7BCD86EB97E030
:1055600025CF82E00E94EF20D0900001009731F11A
:10557000FC0101900020E9F73197BF01681B790B0E
:105580000E94D00E7C010097C9F00E94F40EAB017E
:10559000BC01CE0105960E94E50B81110FC084EA83
:1055A00097E0D1FE30CF2ACF1D3140F442E050E0E9
:1055B00064E271E0CE0105960E94CB10809100015B
:1055C00083FF03C08AE10E947B0E82EA97E00E947B
:1055D000600E6EE1CE0183579F4F0E940319182F72
:1055E0008823B1F0C82ED12CA601BE0163577F4F8E
:1055F000CE0105960E94CB10C816D906A9F280915B
:10560000000181FF6CCE8CE897E00E94521267CEB9
:1056100011E0E9CD67E877E0C6010E94CB2D892B28
:1056200069F581E00E94EF20009709F412CD40E077
:10563000BC01CE0105960E94E91C8823A9F06D8D5E
:105640007E8D8F8D98A14AE00E949012CE01059622
:105650000E94320D11E08091000183FDF8CA84EDB3
:1056600093E00E944E12F3CA8091000181FF04C0B2
:1056700084E897E00E94600E10E0EDCF6FE777E0DE
:10568000C6010E94CB2D892B09F058C182E797E013
:105690000E94600E8091D0038230A9F08330B1F077
:1056A0008130B9F48EE697E00E945212BE01635930
:1056B0007F4F8AE00E94FB0681110EC08EE497E0C6
:1056C0000E94600EC6CC8AE697E0EECF85E697E0B2
:1056D000EBCF8DE597E0E8CF8CE397E00E94600E7A
:1056E00060E170E0AE968FADAE970E94D61283E374
:1056F00097E00E94600EAF968FADAF970E947B0E31
:10570000E0968FADE0970E947B0E84ED93E00E94BF
:105710004E1289E297E00E94600E6DE6E62EF12CB3
:10572000EC0EFD1EF3E0EF0EF11CF70181917F01FD
:105730000E947B0E2E143F04C1F78DE197E00E947A
:10574000600EE6966FADE69762956F7070E090E040
:1057500080E04AE00E9490128BE197E00E94600E88
:10576000E6968FADE6976AE070E08F700E94D612E1
:105770008BE097E00E94600EEA966CAD7DAD8EAD39
:105780009FADEA974AE00E94901284ED93E00E9458
:105790004E1286EF96E00E94600EEC966FADEC978D
:1057A0006F7070E090E080E04AE00E94901284EF19
:1057B00096E00E94600EEC966FADEC9762956F706C
:1057C00070E06053784FEB968FADEB978F70F0E100
:1057D0008F9FC0011124680F791F072E000C880BC2
:1057E000990B0E94E91284ED93E00E944E12BE01D3
:1057F000675B7F4F89E00E94FB06882309F499C00C
:105800002A968FAD2A97807C09F060C060968FAD94
:1058100060978370C82ED12CDC2CCC24DD0CDD0CE1
:1058200061968FAD619724E0829FC0011124C82A40
:10583000D92A62968FAD62978295869586958370F8
:10584000C82A4FEFC41AD40AF12CE12C63968FAD0D
:1058500063978370880F64969FAD649797FB992731
:1058600090F9892B2F969FAD2F979F70890F9927BD
:10587000991F079704C0CC0CDD1CEE1CFF1C8A95F9
:10588000D2F7C114D104E104F10409F452C0BE01FD
:10589000675B7F4F89E00E94FB06882309F449C0BB
:1058A00088EE96E00E94600EC701B6010E940A31A0
:1058B0002DEB37E346E05AE30E9470310E94DB3063
:1058C0004AE00E94901284EE96E001CA803489F585
:1058D0006396CFAC6397D12CF12CE12C8FEFC81AD3
:1058E000D80AE80AF80A62968FAD629790E0B0E0B5
:1058F000A0E0BA2FA92F982F8827C80ED91EEA1E1C
:10590000FB1E61968FAD61978F7390E0B0E0A0E0D1
:10591000DC01992788278C0D9D1DAE1DBF1D6C01D4
:105920007D014AE0CC0CDD1CEE1CFF1C4A95D1F732
:10593000A8CF85ED96E00E9452128BCB60ED76E009
:10594000C6010E94CB2D892B09F404CA6AEC76E0CB
:10595000C6010E94CB2D009719F4FC01099579CB63
:1059600066EC76E0C6010E94CB2D892BD9F481E04C
:105970000E94EF207C01009709F46BCB41E5BC014C
:10598000CE0105960E94E91C882329F0CE010596D8
:105990000E94320DDFC98091000181FF5ACB80EB5C
:1059A00096E004CD69EA76E0C6010E94CB2D892BF2
:1059B00049F481E00E94EF20009709F44ACB0E944D
:1059C000F21CD3CC65EA76E0C6010E94CB2D892B70
:1059D00019F487E896E074CE62E876E0C6010E948A
:1059E000CB2D892B81F581E00E94EF206C0100977F
:1059F00009F42FCB6FE776E00E94CB2DE82E8111C2
:105A000014C000937E0180910001816080930001A9
:105A100060917E0188E090E00E94D51F0E942020C6
:105A200011E0EE2009F413C914CB6BE776E0C60150
:105A30000E94CB2DE82E8111EBCF10927E01809138
:105A400000018E7FE3CF63E776E0C6010E94CB2D95
:105A5000892B41F581E00E94EF206C01009709F449
:105A6000F8CA60E776E00E94CB2DE82E81110CC0C9
:105A700000937D018091000182608093000160911C
:105A80007D0187E090E0C8CF6CE676E0C6010E9419
:105A9000CB2DE82E8111F3CF10927D018091000172
:105AA0008D7FEBCF68E676E0C6010E94CB2D10918A
:105AB0000001892BF1F481E00E94EF206C01009736
:105AC00009F4C7CA65E676E00E94CB2D811108C0B3
:105AD00018601093000111E0882309F4B8C8B9CA0E
